:020000040000FA
:10000000012883160317E030880089018316031343
:10001000FF30850086018701073088008900831240
:100020000313B001C701C601C501C401C301C20168
:10003000C101C001D0010130B10001308600460885
:10004000C70047088700A620023086004508C60082
:1000500046088700A620043086004408C5004508ED
:100060008700A620083086004308C40044088700A3
:10007000A620103086004208C30043088700A6204F
:10008000203086004108C20042088700A620403088
:1000900086004008C10041088700A6208030860005
:1000A0005F20C0008700A6207920B10B1D28B00A70
:1000B0000130B10014303006031962281D283008C1
:1000C00064200800B0011D2882073F347C34DC34F2
:1000D000FF34DF34FC347C343F34003400343434B7
:1000E0007634F734FF34DF34FF347E343C3400346C
:1000F00000343230D0000130860047088700A62047
:100100000230860046088700A62004308600450895
:100110008700A6200830860044088700A6201030FB
:10012000860043088700A62020308600420887000A
:10013000A6204030860041088700A6208030860037
:1001400040088700A620D00B7B2808000130A300C0
:100150000730A2000630A1000000A10BAC28A20BC2
:08016000AA28A30BA82808003F
:02400E00D420BC
:02401000FF3F70
:00000001FF
