:100000000A168A11B328F201F30112280A168A117E
:10001000A4200A128A110130F2070318F30A0030F3
:10002000F307122873087102031D18287208700262
:1000300003181B281C2806281D28080083120313F8
:100040003508BB003608BC003708BD0003103C0D66
:100050003D0DBE003E08BF00BF08031D30283128FB
:1000600039280030B5000030B6000030B7000B2949
:100070000B293808BB003908BC003A08BD00031042
:100080003C0D3D0DBE003E08C400C408031D4928B8
:100090004A2852280030B5000030B6000030B700C2
:1000A0000B290B2944087B3EBB003B08BF073508E2
:1000B000BB003608BC003708BD0010300310BD0C73
:1000C000BC0CBB0CFF3E031D5E283B08BE003E0877
:1000D000C4003808BB003908BC003A08BD00103025
:1000E0000310BD0CBC0CBB0CFF3E031D70283B086D
:1000F000BE003E08C4068030BB003B08C405B617EE
:10010000B917FF30B805FF30B9050030BA05003027
:10011000C0000030C1000030C2000730BB003B0807
:10012000C3009228351C95289628A7283808C007B0
:10013000390803110318390A03199F28C1073A081F
:10014000031103183A0A0319A628C207A728013089
:100150000310B70CB60CB50CFF3E031DA8280130E8
:100160000310B80DB90DBA0DFF3E031DB0280130C4
:10017000C302031DBC28BD289228BE280930BB003D
:100180003B08C300C328351CC628C728D828380810
:10019000C007390803110318390A0319D028C10709
:1001A0003A08031103183A0A0319D728C207D828B6
:1001B00001300310B70CB60CB50CFF3E031DD92857
:1001C00001300310C20CC10CC00CFF3E031DE1281E
:1001D0000130C302031DED28EE28C328EF28400894
:1001E000F0004108F1004208F2003F08BB003B0864
:1001F000F3004408BC003C08F4000A168A114524A8
:100200000A128A11700883120313B5007108B60030
:100210007208B7000B29080083160313B00063307F
:1002200083120313E600660883160313A400E32F6A
:100230003608253A03191D291E293229360883124A
:100240000313E6008316031330088400831203139C
:100250006608831380000130E600660883160313E6
:10026000B007E32FA501A6018312031362088400DF
:100270000A168A110A200A128A112E3A031D4129F0
:100280004229992983160313261701308312031379
:10029000E6006608E20783160313B101B20186295E
:1002A000831603133208F101F1073108F001F0075A
:1002B0000A30F2000030F3000A168A114D210A12AA
:1002C0008A1183120313620884000A168A110A2015
:1002D0000A128A117007E600003003180130710716
:1002E000E7006608D03E83160313B10083120313A0
:1002F00067080318013EFF3E83160313B200013066
:1003000083120313E6006608E20786298312620857
:1003100084000A168A110A200A128A110A168A1102
:10032000D7200A128A110318962997295029A5293E
:10033000A52983160313B101B2012616A529A52903
:10034000FA2F2615BB29E32FBB2901308312031393
:10035000E207FF30620784000A168A110A200A1297
:100360008A1183160313B600003A0319FA2F663A6E
:100370000319A129E32F0030250583120313E6009A
:10038000073083160313260583120313E70067085B
:1003900066040319CC29CD29582F83160313261E72
:1003A000D229D329D8290630B1000030B200D8298B
:1003B0002408840083130008B300840A0008B400F2
:1003C000840A0008B500033083120313E6006608B0
:1003D00083160313A4073308F0003408F10035082E
:1003E000F2000030F3000030F4000030F5000A168F
:1003F0008A11F5220A128A110318FF29002A1A2AE3
:10040000831603133308F0003408F1003508F200B6
:100410000A168A15F4270A128A1170088316031324
:10042000B3007108B4007208B5000330A5040030B1
:10043000A6041A2A83160313AE01AF01350834044B
:1004400033040319242A252A232BB3308400831371
:10045000000883120313E600840A0008E700840AF8
:100460000008E800840A0008E9000F300310E90CD6
:10047000E80CE70CE60CFF3E031D362AFF3066054C
:10048000EA0000306705EB006A08823E831603131A
:10049000AE00831203136B080318013EFF3E831660
:1004A0000313AF00FF30AE070318AF0AFF30AF07EA
:1004B0000330F0000030F1002F08F301F3072E089D
:1004C000F201F2070A168A114D210A128A117108E7
:1004D00083160313AF01AF077008AE01AE070A30F1
:1004E000F7000030F8002F08FA01FA072E08F9018A
:1004F000F9070A168A11CF230A128A11780883167F
:100500000313AF01AF077708AE01AE07AF1F892A0B
:100510008A2A912AFF30AE070318AF0AFF30AF07CF
:10052000912A2E03FF3A0A128A1541250A128A11CE
:1005300083120313450883160313A70083120313C2
:10054000460883160313A800831203134708831673
:100550000313A900330883120313B5008316031392
:10056000340883120313B60083160313350883126D
:100570000313B70083160313270883120313B8006D
:1005800083160313280883120313B9008316031379
:10059000290883120313BA000A128A111E200A12B4
:1005A0008A1183120313350883160313A7008312DD
:1005B0000313360883160313A800831203133708A6
:1005C00083160313A9002708F0002808F100290862
:1005D000F2000030F3008030F4003F30F5000A16DE
:1005E0008A11F5220A128A110318F72AF82A012B18
:1005F000FF3083160313AE070318AF0AFF30AF07AF
:10060000232B831603132708F0002808F10029087C
:10061000F2000030F3002030F4004130F5000A16FB
:100620008A11F5220A128A11031C172B182B232B6F
:10063000013083160313AE070318AF0A0030AF076B
:10064000232B232B232B831603133208803AFF001E
:1006500080307F02031D2E2B0D3031020318312B09
:10066000322B6C2B8316031331080A128A150921C9
:100670000A128A11831203135208C5005308C600D8
:100680005408C70083160313330883120313C800EA
:1006900083160313340883120313C900831603134C
:1006A000350883120313CA000A168A1166250A1236
:1006B0008A1183120313450883160313B3008312B0
:1006C0000313460883160313B40083120313470869
:1006D00083160313B5006C2B831603132F08803A7F
:1006E000FF0080307F02031D772B0A302E02031893
:1006F0007A2B7B2BB32B8316031335083404330476
:100700000319832B842B3C2C330883120313A7007B
:1007100083160313340883120313A80083160313EC
:10072000350883120313A9000A168A11C0240A127D
:100730008A11831203132A08290428042704031D9D
:10074000A22BA32B3C2C831603132F08803AFF0007
:1007500080307F02031DAE2B02302E02031CB12B12
:10076000B22B3C2CB32B831603132708F000280868
:10077000F1002908F2007030F3008930F4004030B5
:10078000F5000A168A11F5220A128A110318C92BDC
:10079000CA2BD32BF73083160313AE070318AF0A07
:1007A000FF30AF07DC2BF83083160313AE070318B6
:1007B000AF0AFF30AF07DC2B2E080A128A1541253D
:1007C0000A128A1183120313450883160313A70024
:1007D00083120313460883160313A800831203131E
:1007E000470883160313A900112C3308F0003408BE
:1007F000F1003508F2002708F3002808F400290862
:10080000F5000A168A11AC260A128A11730883169B
:100810000313A3007208A2007108A1007008A000D1
:100820002D2C3308F0003408F1003508F2002708B9
:10083000F3002808F4002908F5000A128A15272079
:100840000A128A11730883160313A3007208A20008
:100850007108A1007008A0002D2C2308AD0022080B
:10086000AC002108AB002008AA000030B300003023
:10087000B4000030B500AC2C831603133308831288
:100880000313A70083160313340883120313A8006D
:1008900083160313350883120313A9000A168A115D
:1008A000C0240A128A11831203132A088316031321
:1008B000AD0083120313290883160313AC008312BF
:1008C0000313280883160313AB00831203132708AE
:1008D00083160313AA002D08FB002C08FA002B082E
:1008E000F9002A08F8000A168A11A2210A128A11B0
:1008F000780883120313D2007908D3007A08D40051
:1009000083160313330883120313D50083160313CE
:10091000340883120313D600831603133508831299
:100920000313D7000A128A1508200A128A118312AB
:100930000313520883160313B300831203135308DF
:1009400083160313B400831203135408831603138E
:10095000B500AE01AF01AC2CB6010314B60D3608DC
:100960000A3A031DB42CB52CB72C0E2D0E2D3608CB
:1009700083120313E60001300310E60DFF3E031D52
:10098000BC2C0310660D013E84000A168A110A2051
:100990000A128A11E7000A168A110A200A128A111D
:1009A000E8000A168A110A200A128A11E9000A16BA
:1009B0008A110A200A128A11EA006A0883160313B0
:1009C0002D02031DF92C83120313690883160313E8
:1009D0002C02031DF92C83120313680883160313DA
:1009E0002B02031DF92C83120313670883160313CC
:1009F0002A020318FC2CFD2CFF2C0E2D0E2D01308D
:100A000083120313E600660883160313B60736083D
:100A10000A3A031D0C2D0D2DB72C0E2D0330250584
:100A200083120313E6000030831603132605831296
:100A30000313E7006708660403191F2D202D982D66
:100A40002D30E6008316031330088400831203134D
:100A50006608831380000130E600660883160313DE
:100A6000B007982D982D003083120313A300003097
:100A7000A2000030A1000A30A0008316031336083C
:100A800083120313E60001300310E60DFF3E031D41
:100A9000442D0310660D013E84000A168A110A20B7
:100AA0000A128A11F0000A168A110A200A128A1103
:100AB000F1000A168A110A200A128A11F2000A1697
:100AC0008A110A200A128A11F300831603132D08D3
:100AD000F7002C08F6002B08F5002A08F4000A1687
:100AE0008A1161230A128A11730883120313A70063
:100AF0007208A6007108A5007008A4000A168A11E1
:100B000031220A128A11831203132008303EE700B3
:100B100083160313300884008312031367088313BA
:100B200080000130E600660883160313B007982D95
:100B3000FF308312E600660883160313B6073608F3
:100B4000FF3A031DA42DA52D332DC12DC12D30300D
:100B500083120313E6008316031330088400831204
:100B600003136608831380000130E60066088316CD
:100B70000313B007FF30AE070318AF0AFF30AF070B
:100B8000C12D2F08803AFF0080307F02031DCA2D3F
:100B900001302E020318CD2DCE2DA72DCF2D83167B
:100BA00003133208803AFF0080307F02031DDA2DE4
:100BB00009303102031CDD2DDE2DE72D08308312B4
:100BC0000313E600660883160313B600F12D83169F
:100BD0000313310883120313E60066088316031318
:100BE000B600360883120313E600E701E61BE703AD
:100BF000660883160313B102831203136708831672
:100C00000313031CB203B2023608031D082E1C2E68
:100C10002E3083120313E60083160313300884007A
:100C2000831203136608831380000130E600660810
:100C300083160313B0071C2E36080A128A154125A5
:100C40000A128A11831203134508B8004608B90036
:100C50004708BA0083160313330883120313B50041
:100C600083160313340883120313B6008316031389
:100C7000350883120313B7000A128A111E200A12C4
:100C80008A11831203133508A7003608A800370815
:100C9000A9000A168A11C0240A128A1183120313AA
:100CA0002A0883160313AD00831203132908831641
:100CB0000313AC0083120313280883160313AB003D
:100CC00083120313270883160313AA00262F00306C
:100CD00083120313A3000030A2000030A1000A30E9
:100CE000A00083160313360883120313E6000130B5
:100CF0000310E60DFF3E031D782E0310660D013E26
:100D000084000A168A110A200A128A11F0000A16B3
:100D10008A110A200A128A11F1000A168A110A2081
:100D20000A128A11F2000A168A110A200A128A117E
:100D3000F300831603132D08F7002C08F6002B0888
:100D4000F5002A08F4000A168A1161230A128A1192
:100D5000730883120313A7007208A6007108A50088
:100D60007008A4000A168A1131220A128A1183120D
:100D700003132008303EE700831603133008840075
:100D8000831203136708831380000130E6006608AE
:100D900083160313B007360883120313E6000130ED
:100DA0000310E60DFF3E031DD02E0310660D013E1D
:100DB00084000A168A110A200A128A11A0000A1653
:100DC0008A110A200A128A11A1000A168A110A2021
:100DD0000A128A11A2000A168A110A200A128A111E
:100DE000A300831603132D0883120313A700831691
:100DF00003132C0883120313A600831603132B0876
:100E000083120313A500831603132A088312031306
:100E1000A4000A168A1131220A128A1183120313BE
:100E2000230883160313AD008312031322088316CD
:100E30000313AC0083120313210883160313AB00C2
:100E400083120313200883160313AA00FF308312B2
:100E50000313E600660883160313B6073608FF3A45
:100E6000031D332F342F672E502F502F3030831215
:100E70000313E60083160313300884008312031360
:100E80006608831380000130E600660883160313AA
:100E9000B007FF30B1070318B20AFF30B207502F76
:100EA00032083104031D552F562F362FE32FE32F21
:100EB0008316031332083104031D5F2F602F6E2F3A
:100EC0002D082C042B042A04031D672F682F6E2F76
:100ED0000130B1070318B20A0030B2073608831296
:100EE0000313E600E701E61BE7036708803AE80022
:100EF000831603133208803A831203136802031D1A
:100F0000872F831603133108831203136602031815
:100F10008A2F8B2F962F8316031331088312031306
:100F2000E600660883160313B600BC2F831603136E
:100F3000360883120313E600E701E61BE703831676
:100F400003133208803A83120313E8006708803ADB
:100F50006802031DAF2F66088316031331020318BE
:100F6000B22FB32FBC2F831603133608B100B20182
:100F7000B11BB203BC2FBC2F03308316031325050E
:100F800083120313E6000030831603132605831231
:100F90000313E700670866040319CF2FD02FE32F50
:100FA0002D30E600831603133008840083120313E8
:100FB0006608831380000130E60066088316031379
:100FC000B007E32FE32F01308312E207FF306207FF
:100FD00084000A168A110A200A128A11E60066089D
:100FE00083160313B600B608031DF72FF82F182930
:100FF000FA2FFA2F3008840083138001FF2F080096
:1010000064008001840A04060319003404060128E0
:10101000803083120313D4065508C5005608C60055
:101020005708C7005208C8005308C9005408CA002E
:101030000A168A1166250A128A15831203134508B7
:10104000D2004608D3004708D400262808007008BC
:10105000F6007108F7007208F8000310770D780D9C
:10106000F900790883120313A500A508031D392888
:101070003A2844280030F3000030F2000030F1003C
:101080000030F000082908297308F6007408F700FA
:101090007508F8000310770D780DF9007908A400A1
:1010A000A408031D542855285F280030F3000030A1
:1010B000F2000030F1000030F00008290829F11793
:1010C000FF30F005FF30F1050030F205F417FF3076
:1010D000F305FF30F4050030F5050030A3000030C3
:1010E000A2000030A1000030A0007F30A50298309F
:1010F0002407F6007608A5021830F6007608A4004A
:1011000081280130F6000310A00DA10DA20DA30D42
:10111000F60B832875087202031D94287408710267
:10112000031D942873087002031C97289828A4288C
:101130007308F0027408031C740FF1027508031C95
:10114000750AF2022014A42801300310F00DF10DED
:10115000F20DFF3E031DA5280130A402031DB12896
:10116000B2288128A51FB528B628DB282508803A93
:10117000973E0318BC28BD28C8280030F300003073
:10118000F2000030F1000030F00008290829C828DA
:1011900001300310A30CA20CA10CA00CFF3E031DF8
:1011A000C9280130F6007608A507031DD828D928DC
:1011B000C828FF28FF2818302502031CE028E12852
:1011C000F8280030F3000030F2000030F100003069
:1011D000F00008290829F8280130F6000310A00DB6
:1011E000A10DA20DA30DF60BEE280130A502F828E3
:1011F000A508031DFC28FD28EC28FF28FF2823084C
:10120000F3002208F2002108F1002008F00008296C
:10121000080083120313E1006E306102031C1129E0
:101220001229EF290330D5005508A4000A30F70031
:101230000030F8006108D600D7015608F2005708C0
:10124000F3006430F0000030F1000A168A118F229A
:101250000A128A157108FA01FA077008F901F907EC
:101260000A168A11CF230A128A157708093E0A1630
:101270008A11EC200A128A15293E84000A168A1166
:101280000A200A128A1583120313B5000A168A115E
:101290000A200A128A15B6000A168A110A200A12B2
:1012A0008A15B7000330D8005808A4006430F7004E
:1012B0000030F8006108D900DA015908F9005A082D
:1012C000FA000A168A11CF230A128A157708123EED
:1012D0000A168A11EC200A128A15293E84000A1681
:1012E0008A110A200A128A1583120313B8000A16FB
:1012F0008A110A200A128A15B9000A168A110A20D0
:101300000A128A15BA000A128A111E200A128A15B8
:10131000831203133508DE003608DF003708E000CB
:101320000330D5005508A4006108D600D70156083F
:10133000F2005708F3000A30F0000030F1000A16FE
:101340008A118F220A128A1570080A168A11EC2057
:101350000A128A15293E84000A168A110A200A12E6
:101360008A1583120313B5000A168A110A200A127D
:101370008A15B6000A168A110A200A128A15B700C1
:101380005E08B8005F08B9006008BA000A128A1146
:101390001E200A128A15831203133508DB00360853
:1013A000DC003708DD000030B5000030B6003F300B
:1013B000B7005B08B8005C08B9005D08BA000A1203
:1013C0008A111E200A128A15831203133508D200CF
:1013D0003608D3003708D400B32AB32A7F2A0B304B
:1013E0006102031CF429F5297F2A0330D500550832
:1013F000A4006108D600D7015608F2005708F30090
:101400000A30F0000030F1000A168A118F220A1209
:101410008A1570080A168A11EC200A128A15293ECC
:1014200084000A168A110A200A128A1583120313ED
:10143000B5000A168A110A200A128A15B6000A1681
:101440008A110A200A128A15B7000330D8005808FA
:10145000A4000A30F7000030F8006108D900DA0172
:101460005908F9005A08FA000A168A11CF230A12FD
:101470008A157708093E0A168A11EC200A128A1585
:10148000293E84000A168A110A200A128A1583123C
:101490000313B8000A168A110A200A128A15B90025
:1014A0000A168A110A200A128A15BA000A128A112B
:1014B0001E200A128A15831203133508DE0036082F
:1014C000DF003708E0000030B5000030B6003F30E4
:1014D000B7005E08B8005F08B9006008BA000A12D9
:1014E0008A111E200A128A15831203133508D200AE
:1014F0003608D3003708D400B32AB32A7F2A003035
:10150000B5000030B6003F30B7000330D5005508B5
:10151000A40061080A168A11EC200A128A15293ED5
:1015200084000A168A110A200A128A1583120313EC
:10153000B8000A168A110A200A128A15B9000A167A
:101540008A110A200A128A15BA000A128A111E206C
:101550000A128A15831203133508D2003608D30005
:101560003708D400B32A08007030831603138F00A5
:10157000F0308316031788008901831603139F0137
:1015800085010430860007308900870188010A162A
:101590008A11D4210A128A150A168A11C4200A1245
:1015A0008A157730F6008030F7000A168A11772105
:1015B0000A128A15F430F0000130F1000A128A1183
:1015C00003200A128A150A168A11C4200A128A15E3
:1015D000FF308316031392008030831203139500AB
:1015E000831603138C140C308312031397001030EE
:1015F00092001215FB2A8C1CFE2AFF2AFB2A012BC3
:10160000012B1930831203139F009F140130F00047
:101610000030F1000A128A1103200A128A15102BD9
:10162000831203139F18152B162B102B1F108316D4
:1016300003131E08B70006300310B70CFF3E031D4E
:101640001C2B3708B800B901831203131E08831638
:101650000313BA00BB010230FF000310BA0DBB0D2B
:10166000FF0B2D2B38083A0483120313EC0083166A
:10167000031339083B0483120313ED002830B5002F
:10168000A030B6003B30B7006D08F901F9076C08CF
:10169000F801F8070A168A1125210A128A15780816
:1016A00083120313B8007908B9007A08BA000A1245
:1016B0008A111E200A128A15831203133508831615
:1016C0000313BC0083120313360883160313BD00F3
:1016D00083120313370883160313BE008312031308
:1016E0001E089500831603131E08B700023003106E
:1016F000B70CFF3E031D772B37080C3883120313FA
:10170000970080300A168A15DE270A128A158E3055
:1017100083160313B700370883120313E2008316FE
:1017200003133C0883120313E300831603133D08DD
:1017300083120313E400831603133E08831203137A
:10174000E500C2300A128A110C210A128A15C23031
:10175000F6000030F7000A168A1177210A128A155E
:1017600088300A168A15DE270A128A15003083127D
:101770000313B500C830B6003D30B7006D08F9015D
:10178000F9076C08F801F8070A168A1125210A12D0
:101790008A15780883120313B8007908B9007A080B
:1017A000BA000A128A111E200A128A158312031324
:1017B000350883160313BF008312031336088316FC
:1017C0000313C00083120313370883160313C100E9
:1017D0008730B700370883120313E2008316031320
:1017E0003F0883120313E300831603134008831298
:1017F0000313E40083160313410883120313E50067
:10180000C2300A128A110C210A128A15C230F6005F
:101810000030F7000A168A1177210A128A158F30D4
:101820000A168A15DE270A128A1525300A168A1525
:10183000E9270A128A150A30F0000030F1000A1276
:101840008A1103200A128A151D30831203139F0088
:101850009F142A2C9F182D2C2E2C2A2C1F108316F7
:1018600003131E08B70006300310B70CFF3E031D1C
:10187000342C3708B800B901831203131E088316ED
:101880000313BA00BB010230FF000310BA0DBB0DF9
:10189000FF0B452C38083A0483120313EC0083161F
:1018A000031339083B0483120313ED002830B500FD
:1018B000A030B6003B30B7006D08F901F9076C089D
:1018C000F801F8070A168A1125210A128A157808E4
:1018D00083120313B8007908B9007A08BA000A1213
:1018E0008A111E200A128A158312031335088316E3
:1018F0000313BC0083120313360883160313BD00C1
:1019000083120313370883160313BE0083120313D5
:101910001E089B00831603131E08B7000230031035
:10192000B70CFF3E031D8F2C37080C3883120313AE
:101930009D00C0300A168A15DE270A128A158E30DD
:1019400083160313B700370883120313E2008316CC
:1019500003133C0883120313E300831603133D08AB
:1019600083120313E400831603133E088312031348
:10197000E500C2300A128A110C210A128A15C230FF
:10198000F6000030F7000A168A1177210A128A152C
:10199000C8300A168A15DE270A128A15003083120B
:1019A0000313B500C830B6003D30B7006D08F9012B
:1019B000F9076C08F801F8070A168A1125210A129E
:1019C0008A15780883120313B8007908B9007A08D9
:1019D000BA000A128A111E200A128A1583120313F2
:1019E000350883160313BF008312031336088316CA
:1019F0000313C00083120313370883160313C100B7
:101A00008730B700370883120313E20083160313ED
:101A10003F0883120313E300831603134008831265
:101A20000313E40083160313410883120313E50034
:101A3000C2300A128A110C210A128A15C230F6002D
:101A40000030F7000A168A1177210A128A15CF3062
:101A50000A168A15DE270A128A1525300A168A15F3
:101A6000E9270A128A150A30F0000030F1000A1244
:101A70008A1103200A128A15012B012B0A128A11DE
:101A8000002883120313CD00CD1F472D482DA52E0E
:101A9000CD09CD0A4D08803A123E031C502D512D20
:101AA0000F2E0330C8004808A4000A30F7000030A9
:101AB000F8004D08F200F301F21BF3036430F0006C
:101AC0000030F1000A168A118F220A128A15710855
:101AD000FA01FA077008F901F9070A168A11CF23EB
:101AE0000A128A157708093E0A168A11EC200A1292
:101AF0008A15293E84000A168A110A200A128A15BC
:101B000083120313B5000A168A110A200A128A15D5
:101B1000B6000A168A110A200A128A15B700033085
:101B2000C9004908A4006430F7000030F8004D08EF
:101B3000F900FA01F91BFA030A168A11CF230A12D7
:101B40008A157708123E0A168A11EC200A128A15A5
:101B5000293E84000A168A110A200A128A15831265
:101B60000313B8000A168A110A200A128A15B9004E
:101B70000A168A110A200A128A15BA000A128A1154
:101B80001E200A128A15831203133508CA0036086C
:101B9000CB003708CC000330C8004808A4004D082B
:101BA000F200F301F21BF3030A30F0000030F10001
:101BB0000A168A118F220A128A1570080A168A11CB
:101BC000EC200A128A15293E84000A168A110A207E
:101BD0000A128A1583120313B5000A168A110A2005
:101BE0000A128A15B6000A168A110A200A128A15E4
:101BF000B7004A08B8004B08B9004C08BA000A12EE
:101C00008A111E200A128A15831203133508C50093
:101C10003608C6003708C700FF2FFF2F832E4D0858
:101C2000803A753E031C152E162E832E0330C800F5
:101C30004808A4004D08F200F301F21BF3030A3038
:101C4000F0000030F1000A168A118F220A128A155C
:101C500070080A168A11EC200A128A15293E84009F
:101C60000A168A110A200A128A1583120313B50074
:101C70000A168A110A200A128A15B6000A168A1153
:101C80000A200A128A15B7000330C9004908A400C7
:101C90000A30F7000030F8004D08F900FA01F91B8E
:101CA000FA030A168A11CF230A128A157708093E09
:101CB0000A168A11EC200A128A15293E84000A1697
:101CC0008A110A200A128A1583120313B8000A1611
:101CD0008A110A200A128A15B9000A168A110A20E6
:101CE0000A128A15BA000A128A111E200A128A15CF
:101CF000831203133508C5003608C6003708C7002D
:101D0000FF2FFF2F832E0330C8004808A4004D0882
:101D10000A168A11EC200A128A15293E84000A1636
:101D20008A110A200A128A1583120313C5000A16A3
:101D30008A110A200A128A15C6000A168A110A2078
:101D40000A128A15C700FF2FFF2F4D08803A123E56
:101D5000031CAB2EAC2E6A2F0330C8004808A40029
:101D60000A30F7000030F8004D08F200F301F21BD2
:101D7000F3036430F0000030F1000A168A118F225C
:101D80000A128A157108FA01FA077008F901F907B1
:101D90000A168A11CF230A128A157708093E0A16F5
:101DA0008A11EC200A128A15503E84000A168A1104
:101DB0000A200A128A1583120313B5000A168A1123
:101DC0000A200A128A15B6000A168A110A200A1277
:101DD0008A15B7000330C9004908A4006430F70031
:101DE0000030F8004D08F900FA01F91BFA030A1651
:101DF0008A11CF230A128A157708123E0A168A1111
:101E0000EC200A128A15503E84000A168A110A2014
:101E10000A128A1583120313B8000A168A110A20BF
:101E20000A128A15B9000A168A110A200A128A159E
:101E3000BA000A128A111E200A128A15831203138D
:101E40003508CA003608CB003708CC000330C8007C
:101E50004808A4004D08F200F301F21BF3030A3016
:101E6000F0000030F1000A168A118F220A128A153A
:101E700070080A168A11EC200A128A15503E840056
:101E80000A168A110A200A128A1583120313B50052
:101E90000A168A110A200A128A15B6000A168A1131
:101EA0000A200A128A15B7004A08B8004B08B90080
:101EB0004C08BA000A128A111E200A128A158312CF
:101EC00003133508C5003608C6003708C700FF2FC2
:101ED000FF2FDE2F4D08803A753E031C702F712FA7
:101EE000DE2F0330C8004808A4004D08F200F301BB
:101EF000F21BF3030A30F0000030F1000A168A11D9
:101F00008F220A128A1570080A168A11EC200A120A
:101F10008A15503E84000A168A110A200A128A1570
:101F200083120313B5000A168A110A200A128A15B1
:101F3000B6000A168A110A200A128A15B700033061
:101F4000C9004908A4000A30F7000030F8004D0825
:101F5000F900FA01F91BFA030A168A11CF230A12B3
:101F60008A157708093E0A168A11EC200A128A158A
:101F7000503E84000A168A110A200A128A1583121A
:101F80000313B8000A168A110A200A128A15B9002A
:101F90000A168A110A200A128A15BA000A128A1130
:101FA0001E200A128A15831203133508C50036084D
:101FB000C6003708C700FF2FFF2FDE2F0330C800F1
:101FC0004808A4004D080A168A11EC200A128A1546
:101FD000503E84000A168A110A200A128A158312BA
:101FE0000313C5000A168A110A200A128A15C600B0
:101FF0000A168A110A200A128A15C700FF2F080044
:10200000FF1B0A2883137F1883170008840A03190B
:10201000FF0A080010308A000408840A820700348E
:1020200001340034003400340A3400340034003405
:102030006434003400340034E834033400340034B1
:102040001034273400340034A03486340134003492
:10205000403442340F3400348034963498340034A1
:102060000034E134F53405340034CA349A343B3456
:10207000003480343F34CD34CC343D34D734233431
:102080003C34123483343A34B734D1343834C6341F
:1020900027343734383486343534C034D634333486
:1020A000CC342B343234703489343034E734DB347C
:1020B0002E34E5343C341E344234A2340D34003422
:1020C00080343F340034203441340034C834423446
:1020D00000347A34443440341C3446345034C334ED
:1020E0004734243474344934973418344B34BC3472
:1020F000BE344C346B346E344E34033415345034A7
:102100007934AD346034F3344934713449346E3445
:102110006934633469346C3469347A3461346E34CC
:1021200064346F342E342E342E34003450343D3425
:1021300025342E3432346634003456343D3425345C
:102140002E34333466340034013083160313810097
:102150000D30831203138100AD280B1DB028B12868
:10216000AD280B110800EC01ED01EE01EF01831326
:10217000BC308400D6300A128A1500200A168A1153
:1021800083010A128A15B42A831203130511013040
:102190000A168A1106210A168A110230F000003050
:1021A000F1000A128A1103200A168A110800F100B0
:1021B000F0013A3071020318DE28DF28E9283030B8
:1021C0007102031CE428E528E928F0010314F00D4E
:1021D000E928700CEB28080083120313A600A50160
:1021E000261CF328F428F9282408FC007C08A507FD
:1021F000F9280310A40D0310A60CA608031D01293D
:102200000229F0280329250805290800F5000130D6
:10221000F0000030F1000A128A1103200A168A1118
:102220007508F40004300310F40CFF3E031D13295D
:1022300074080F39831203138800851485107508FC
:102240000F398800851485100800FD01F91F292920
:102250002A293329F809F909F80A0319F90AFD01AD
:102260000314FD0D33297808F0007908F100F2011C
:102270008E30FB007B08F3007D08FC007C08F40036
:102280000A168A1145240A168A117008F800710886
:10229000F9007208FA004C290800F401F5015029F0
:1022A000701C532954295A297208F4070318F50A97
:1022B0007308F50701300310F20DF30DFF3E031D07
:1022C0005B2901300310F10CF00CFF3E031D622965
:1022D00071087004031D6D296E2950296F29750836
:1022E000F101F1077408F001F00776290800831264
:1022F0000313051590297708FF00760884000A1655
:102300008A1100200A168A110A168A1106210A1655
:102310008A110130F6070318F70A0030F7079029F1
:10232000770883120313FF00760884000A168A11C7
:1023300000200A168A110038031D9F29A0297B2935
:10234000A12908008E30FC007C08FD00B529013071
:102350000310FB0CFA0CF90CF80CFF3E031DA82926
:102360000130FC007C08FD07B529FF307B05031D0B
:10237000BA29BB29A729BC297808F0007908F100FF
:102380007A08F2007D08FC007C08F300F4010A16CC
:102390008A1145240A168A117008F8007108F9009C
:1023A0007208FA00D32908000330F6007608F70017
:1023B000831603138501870183120313051185100A
:1023C00005120F30F0000030F1000A128A110320CC
:1023D0000A168A1177088312031388008514851062
:1023E0000A30F0000030F1000A128A1103200A16A8
:1023F0008A1183120313851485100A30F00000300F
:10240000F1000A128A1103200A168A11831203139B
:10241000851485100A30F0000030F1000A128A118C
:1024200003200A168A1102308312031388008514D0
:10243000851028300A168A1106210A168A110F30D3
:102440000A168A1106210A168A110A168A11C42050
:102450000A168A1106300A168A1106210A168A11EE
:102460000800831203132308220421042004031903
:102470003A2A3B2A852AA9010314A90D4D2A0130C5
:10248000A8000310A00DA10DA20DA30DA80B412AB9
:102490000130A8002808A9074D2AA31F502A512A55
:1024A0003F2A532A532A23082702031D612A2208A0
:1024B0002602031D612A21082502031D612A200826
:1024C0002402031C642A652A742A2008A402210815
:1024D000031C210FA5022208031C220FA6022308B9
:1024E000031C230FA702742A01300310A30CA20CB3
:1024F000A10CA00CFF3E031D752A0130A902031D8B
:10250000822A832A532A852A852A2708A300260897
:10251000A2002508A1002408A0008E2A0800F601C8
:10252000F31F932A942A9D2AF209F309F20A031948
:10253000F30AF6010314F60D9D2AF11FA02AA12A21
:10254000A72AF009F109F00A0319F10AA72A71086C
:1025500070040319AC2AAD2AE32AF5010314F50D22
:10256000BD2A01300310F00DF10DFF3E031DB22A0C
:102570000130F4007408F507BD2AF11FC02AC12AF2
:10258000B12AC32AC32A71087302031DC92A70081D
:102590007202031CCC2ACD2AD42A7008F2027108D8
:1025A000031CF303F302D42A01300310F10CF00CE6
:1025B000FF3E031DD52A0130F502031DE02AE12A62
:1025C000C32AE32AE32A7608031DE72AED2AF20943
:1025D000F309F20A0319F30AED2A7308F101F1076E
:1025E0007208F001F007F42A0800F21FF82AF92A0D
:1025F0001F2B0030F6000030F7008030F800700923
:10260000F9007109FA007209FB00F90A0319FA0AC4
:102610000319FB0A7908F6077A0803187A0F112BB9
:10262000122BF7077B0803187B0F172B182BF807C3
:102630007608F0007708F1007808F2001F2BF51FEC
:10264000222B232B492B0030F6000030F70080307E
:10265000F8007309F9007409FA007509FB00F90A1A
:102660000319FA0A0319FB0A7908F6077A0803180E
:102670007A0F3B2B3C2BF7077B0803187B0F412B72
:10268000422BF8077608F3007708F4007808F50085
:10269000492B8030F2068030F50675087202031D62
:1026A000572B74087102031D572B7308700203180F
:1026B0005A2B5B2B5D2B0310602B0314602B602BBC
:1026C00008000030FC000030FB000030FA00003051
:1026D000F90073087204710470040319702B712BD4
:1026E000C52BFD010314FD0D832B0130F8000310F1
:1026F000F00DF10DF20DF30DF80B772B0130F80012
:102700007808FD07832BF31F862B872B752B892BCE
:10271000892B0130F8000310F90DFA0DFB0DFC0DAB
:10272000F80B8B2B73087702031DA02B720876021F
:10273000031DA02B71087502031DA02B70087402E5
:10274000031CA32BA42BB42B7008F4027108031CE8
:10275000710FF5027208031C720FF6027308031C56
:10276000730FF7027914B42B01300310F30CF20C41
:10277000F10CF00CFF3E031DB52B0130FD02031DD3
:10278000C22BC32B892BC52BC52B7C08F3007B08E0
:10279000F2007A08F1007908F000CE2B08008312CD
:1027A0000313A101F81FD52BD62BDF2BF709F8094E
:1027B000F70A0319F80AA1010314A10DDF2BFA1F70
:1027C000E22BE32BED2BF909FA09F90A0319FA0AAE
:1027D0000130FB007B08A106ED2BA201A3017808C4
:1027E00077040319F42BF52B332CA0010314A00D4F
:1027F000052C01300310F70DF80DFF3E031DFA2BD9
:102800000130FB007B08A007052CF81F082C092CC1
:10281000F92B0B2C0B2C01300310A20DA30DFF3E46
:10282000031D0C2C78087A02031D182C77087902F6
:10283000031C1B2C1C2C242C7708F9027808031C81
:10284000FA03FA022214242C01300310F80CF70CBE
:10285000FF3E031D252C0130A002031D302C312C1E
:102860000B2C332C332C2108031D372C3D2CA209B3
:10287000A309A20A0319A30A3D2C2308F801F807AB
:102880002208F701F707442C08007308031D492CA0
:10289000512C720871047004031D4F2C502C672CAE
:1028A000512C0030F0000030F1000030F200BF2C5D
:1028B000BF2C672C0130F5007508F30701300310B9
:1028C000F20CF10CF00CFF3E031D5F2C672CFE3068
:1028D0007205031D6C2C6D2C5A2C852C852C013017
:1028E000F5007508F3070130F007003003180130D8
:1028F000F107003003180130F20701300310F20C29
:10290000F10CF00CFF3E031D7E2CFF307205031D01
:102910008A2C8B2C6F2C982C982C0130F3020130D0
:102920000310F00DF10DF20DFF3E031D902C982CBD
:10293000F11F9B2C9C2C8D2C73189F2CA02CA62C4B
:10294000FF30F0057F30F105FF30F2050310F30C86
:102950007308F500F601F70110300310F50DF60DC0
:10296000F70DFF3E031DAD2C7508F0047608F10449
:102970007708F2047408031DBE2CBF2CF217080060
:10298000831203132708AB002808AC002908AD0008
:1029900003102C0D2D0DAE002E08B400B408031D3D
:1029A000D22CD32CDD2C0030AA000030A90000303E
:1029B000A8000030A700652D652D2708AB0028086A
:1029C000AC002908AD0017300310AD0CAC0CAB0CFB
:1029D000FF3E031DE42C2B08AE002E08AF00A81705
:1029E000FF30A705FF30A8050030A9052708B00073
:1029F0002808B1002908B200B3018E30B402B41F18
:102A0000022D032D282D3408803A8F3E0318092DFE
:102A10000A2D152D0030AA000030A9000030A800B2
:102A20000030A700652D652D152D01300310B30C66
:102A3000B20CB10CB00CFF3E031D162D0130AB00E3
:102A40002B08B407031D252D262D152D4C2D4C2D9F
:102A500018303402031C2D2D2E2D452D0030AA00D8
:102A60000030A9000030A8000030A700652D652DBA
:102A7000452D0130AB000310B00DB10DB20DB30DFB
:102A8000AB0B3B2D0130B402452DB408031D492D7D
:102A90004A2D392D4C2D4C2D2F08031D502D5C2D0A
:102AA000B009B109B209B309B00A0319B10A03198F
:102AB000B20A0319B30A5C2D3308AA003208A90030
:102AC0003108A8003008A700652D08008312031301
:102AD0004508CB004608CC004708CD0003104C0D3C
:102AE0004D0DCE004E08D1004808CB004908CC005F
:102AF0004A08CD0003104C0D4D0DCE004E08D000FD
:102B00005108031D842D952D500851020318892D5D
:102B10008A2D9D2D5103FF3A5007CB0019304B02EF
:102B2000031C932D942D9D2D952D4808C500490813
:102B3000C6004A08C700AB2EAB2E5008031DA12DBE
:102B4000B12D510850020318A62DA72DB22D500308
:102B5000FF3A5107CB0019304B02031CB02DB12DA9
:102B6000B22DAB2E0630CB004B08CF00C71FB92DBE
:102B7000BA2DBB2DCF17CA1FBE2DBF2DC02D4F178D
:102B8000C617FF30C505FF30C6050030C705C91799
:102B9000FF30C805FF30C9050030CA055008510292
:102BA0000318D32DD42D052ED52D01300310C80DBB
:102BB000C90DCA0DFF3E031DD62D0130D0025008AD
:102BC00051060319E42DE52DFD2D0130CF024F08EC
:102BD0000739031DEC2DED2DD52DFD2DFD2DFD2DE2
:102BE00001300310C70CC60CC50CFF3E031DF12DB0
:102BF0000130CB004B08D107FD2D51085006031DB5
:102C0000022E032EF02D3C2E3C2E510850020318AC
:102C10000A2E0B2E3C2E0C2E01300310C50DC60DB6
:102C2000C70DFF3E031D0D2E0130D1025008510685
:102C300003191B2E1C2E342E0130CF024F080739EA
:102C4000031D232E242E0C2E342E342E342E013030
:102C50000310CA0CC90CC80CFF3E031D282E0130FE
:102C6000CB004B08D007342E51085006031D392ED7
:102C70003A2E272E3C2E3C2ECF1F3F2E402E512E7B
:102C8000FF30C506FF30C606FF30C7060130C50756
:102C9000003003180130C607003003180130C707A1
:102CA000512E4F1F542E552E662EFF30C806FF3072
:102CB000C906FF30CA060130C807003003180130CA
:102CC000C907003003180130CA07662ECF01450836
:102CD000C807460803110318460A0319702EC907CE
:102CE000470803110318470A0319772ECA07CA1F9A
:102CF0007A2E7B2E8F2EFF30C806FF30C906FF309C
:102D0000CA060130C807003003180130C907003077
:102D100003180130CA07CF010314CF0D8F2E4808C6
:102D2000F0004908F1004A08F2005108CB004B08B6
:102D3000F3004F08CC004C08F4000A168A11452411
:102D40000A168A11700883120313C5007108C600A1
:102D50007208C700AB2E0800703084000008F6002F
:102D6000840A0008F700840A0008F800840A0008B2
:102D7000F9000310780D790DFA007A088312031315
:102D8000A500A508031DC52EC62ED02E0030F300C9
:102D90000030F2000030F1000030F000FF2FFF2F74
:102DA000733084000008F600840A0008F700840AE3
:102DB0000008F800840A0008F9000310780D790D66
:102DC000FA007A08A400A408031DE72EE82EF22ECC
:102DD0000030F3000030F2000030F1000030F0006D
:102DE000FF2FFF2F7030840000308004840A0030F1
:102DF0008004840A80308004840A003080047030AB
:102E00008400FF308005840AFF308005840AFF308B
:102E10008005840A0030800573308400003080040F
:102E2000840A00308004840A80308004840A0030E0
:102E3000800473308400FF308005840AFF308005F1
:102E4000840AFF308005840A003080050030A3002A
:102E50000030A2000030A1000030A0007F30A502A9
:102E6000A0302407F6007608A5022030F600760888
:102E7000A4003A2F0130F6000310A00DA10DA20D01
:102E8000A30DF60B3C2F733084000008F600840A73
:102E90000008F700840A0008F800840A0008F90016
:102EA000703084000008FA00840A0008FB00840ADD
:102EB0000008FC00840A0008FD0079087D02031D5B
:102EC0006B2F78087C02031D6B2F77087B02031D94
:102ED0006B2F76087A02031C6E2F6F2F922F7330A0
:102EE00084000008F600840A0008F700840A00083D
:102EF000F800840A0008F900703084007608800227
:102F0000840A7708031C770F8002840A7808031C60
:102F1000780F8002840A7908031C790A8002033042
:102F2000840220147030840001300310800D840A64
:102F3000800D840A800D840A800D84038403840339
:102F4000FF3E031D952F0130A402031DA82FA92FBA
:102F50003A2FA51FAC2FAD2FD22F2508803A9F3EC8
:102F60000318B32FB42FBF2F0030F3000030F2004E
:102F70000030F1000030F000FF2FFF2FBF2F013095
:102F80000310A30CA20CA10CA00CFF3E031DC02F2C
:102F90000130F6007608A507031DCF2FD02FBF2FD5
:102FA000F62FF62F20302502031CD72FD82FEF2F16
:102FB0000030F3000030F2000030F1000030F0008B
:102FC000FF2FFF2FEF2F0130F6000310A00DA10DF2
:102FD000A20DA30DF60BE52F0130A502EF2FA508DA
:102FE000031DF32FF42FE32FF62FF62F2308F30002
:102FF0002208F2002108F1002008F000FF2F08004D
:103FBC00F60083120313051176080A168A110621DE
:103FCC000A168A150800F6008312031305157608E5
:103FDC000A168A1106210A168A150800720871043D
:103FEC0070040319FA2FFB2FFE2F8030F206FE2FE0
:043FFC00FF2F08008B
:04400E00D4E0FFFFFC
:00000001FF
