:020000040000FA
:1000000083160317203088008901831603138501A6
:10001000860110308700FF308800013089000030F1
:10002000910000309400D730810000309F0083128F
:1000300003138501860187018801890193018B16CD
:100040002030940015309F00851685120808930013
:100050006F20831203131308851615309F000000CC
:100060009F149F18312885121E0893006F20831259
:100070000313130886008516831603131E088312C4
:100080000313A500A50CA50C250C851293006F2069
:100090008312031313089500851683120313851228
:1000A000103093006F201308970085166F20803062
:1000B00095009B000C3097009D00121492141215AD
:1000C000252885122108930083160313141C662823
:1000D000831203131308A20085166F200800000086
:1000E00083120313D83081000B1D74280B110800F4
:02400E00D420BC
:02401000FF3F70
:00000001FF
