:100000000A128A11682E00308A000408840A8207C6
:10001000003480340034003400348134003400343F
:10002000003482340034003400348334003400342B
:100030000034843400340034003485340034003417
:100040000034863400340034003487340034003403
:1000500000348834003400340034893400340034EF
:1000600000348A340034003400348B3400340034DB
:1000700000348C340034003400348D3400340034C7
:1000800000348E340034003400348F3400340034B3
:100090000034C034003400340034C134003400343F
:1000A0000034C234003400340034C334003400342B
:1000B0000034C434003400340034C5340034003417
:1000C0000034C634003400340034C7340034003403
:1000D0000034C834003400340034C93400340034EF
:1000E0000034CA34003400340034CB3400340034DB
:1000F0000034CC34003400340034CD3400340034C7
:100100000034CE34003400340034CF3400340034B2
:10011000003449346E346934633469346C3469347E
:100120007A3461346E3464346F342E342E342E3489
:02013000003499
:100CD00083010A128A115F2FF60083120313051194
:100CE00076080A128A11BF260A128A110800F60035
:100CF00083120313051576080A128A11BF260A12F9
:100D00008A11080001308316031381000D3083120D
:100D1000031381008B2E0B1D8E2E8F2E8B2E0B110D
:100D2000080083120313051101300A128A11BF262D
:100D30000A128A110230F0000030F1000A128A1102
:100D4000A4260A128A110800F201F301B32E0A1236
:100D50008A1182260A128A110130F2070318F30A57
:100D60000030F307B32E73087102031DB92E720809
:100D700070020318BC2EBD2EA72EBE2E0800F50053
:100D80000130F0000030F1000A128A11A4260A1284
:100D90008A117508F40004300310F40CFF3E031DA3
:100DA000CC2E74080F398312031388008514851024
:100DB00075080F398800851485100800F700831224
:100DC00003130515F42E770884000A128A110320F4
:100DD0000A128A110A128A11BF260A128A110130D8
:100DE000F6007608F707F42E770884000A128A11B5
:100DF00003200A128A110038031DFF2E002FE32E54
:100E0000012F08000330F6007608F700831603135D
:100E100085018701831203130511851005120F3018
:100E2000F0000030F1000A128A11A4260A128A1179
:100E30007708831203138800851485100A30F000A8
:100E40000030F1000A128A11A4260A128A118312B4
:100E50000313851485100A30F0000030F1000A12E7
:100E60008A11A4260A128A1183120313851485108D
:100E70000A30F0000030F1000A128A11A4260A128A
:100E80008A110230831203138800851485102830DC
:100E90000A128A11BF260A128A110C300A128A110C
:100EA000BF260A128A110A128A1191260A128A1181
:100EB00006300A128A11BF260A128A110800603011
:100EC000831603138F008316031788018901831685
:100ED0000313880185010A128A1102270A128A1156
:100EE0000A128A1191260A128A1181300A128A1175
:100EF000DE260A128A11F430F0000130F1000A12E5
:100F00008A11A4260A128A110A128A1191260A123B
:100F10008A118A2FF90121307902031C902F912F19
:100F2000932FC22FC22F7908F80001300310F80D5B
:100F3000FF3E031D962F0310780D013E84000A1218
:100F40008A1103200A128A110A128A116C260A12C7
:100F50008A11DB300A128A1177260A128A11FA30B6
:100F6000F0000030F1000A128A11A4260A128A1138
:100F70000130F8007808F90721307902031CC12FED
:100F8000C22F932FF90121307902031CC82FC92FDA
:100F9000CB2F8A2F8A2F7908F80001300310F80D23
:100FA000FF3E031DCE2F0310780D013E84000A1270
:100FB0008A1103200A128A110A128A116C260A1257
:100FC0008A1120300A128A1177260A128A11FA3001
:100FD000F0000030F1000A128A11A4260A128A11C8
:100FE0000130F8007808F90721307902031CF92F45
:100FF000FA2FCB2F8A2F8A2F8A2F0A128A110028C4
:04400E00D4E0FFFFFC
:00000001FF
