:020000040000FA
:1000000083160317E0308800890183160313FF303D
:100010008500860187018801073089009F018312CE
:10002000031301308700D8309F001F149F149F18BE
:1000300017281E082A2086004F201F10DC309F0042
:100040001F149F149F1822281E082A2087004F2063
:100050001F101328A2002208203C03184E28220853
:10006000403C03184D282208603C03184C28220805
:10007000803C03184B282208A03C03184A28220879
:10008000C03C031849282208E03C03184828803463
:1000900040342034103408340434023401342C3019
:0E00A000A100A300A30B5228A10B51280800B9
:02400E00D420BC
:02401000FF3F70
:00000001FF
