:020000040000FA
:10000000831603178801890183160313FF008500F7
:1000100086018701880189018312031305080F39BE
:10002000A3000F30230203192928073023020319E4
:10003000272803302302031925280130230203193E
:10004000232832302A2816302A2808302A2804305B
:100050002A280130A400851B3A2808308600472052
:100060000430860047200230860047200130860099
:1000700047200E28013086004720023086004720A6
:100080000430860047200830860047200E282408C8
:10009000A2000130A1000730A0000000A00B4D28F5
:0A00A000A10B4B28A20B4928080011
:02400E00D420BC
:02401000FF3F70
:00000001FF
