:020000040000FA
:10000000831603178816890183160313FF308500B2
:100010008601870188010914D730810083120313F8
:1000200018208420102800000000000000000800B4
:100030000130A00008308600A82004308600A820E7
:1000400002308600A82001308600A820A00B1A28C4
:10005000982008000230A10008308600A820043053
:100060008600A82002308600A82001308600A82043
:10007000A10B2C28982008000330A200083086002D
:10008000A82004308600A82002308600A820013075
:100090008600A820A20B3E28982008000430A30068
:1000A00008308600A82004308600A8200230860090
:1000B000A82001308600A820A30B50289820080013
:1000C0000530A40008308600A82004308600A8204F
:1000D00002308600A82001308600A820A40B6228E8
:1000E000982008000630A50008308600A8200430BB
:1000F0008600A82002308600A82001308600A820B3
:10010000A50B742898200800003086000130860076
:10011000A82002308600A82004308600A8200830DD
:100120008600AD200508A600003EA61B8428080016
:1001300000308600AD2008008101811E9D28080046
:100140007A30B3008101811EA328B30BA2280800D6
:10015000B0308100811BAA28080081015530B4000D
:0C0160008101811EB128B40BB0280800FA
:02400E00D420BC
:02401000FF3F70
:00000001FF
