:020000040000FA
:1000000083160317881689018316031380309F0017
:10001000FF3085008601870188010914D7308100EF
:1000200083120313D5309F00EB209F149F181628CE
:10003000831603131E088312031386002220C32095
:10004000E22014286908273C03188D283A08273C29
:10005000031869282008273C03189F280A08273C12
:10006000031843286108273C031845285B08273CF0
:1000700003187B283808273C0318B1281808273CA8
:10008000031857280800D92014280930A800083080
:100090008700DD2004308700DD2002308700DD206E
:1000A00001308700DD20A80B4728D9201428013013
:1000B000A00008308700DD2004308700DD200230FA
:1000C0008700DD2001308700DD20A00B5928D920D2
:1000D00014280230A10008308700DD20043087009A
:1000E000DD2002308700DD2001308700DD20A10BFC
:1000F0006B28D92014280330A20008308700DD20A7
:1001000004308700DD2002308700DD2001308700C9
:10011000DD20A20B7D28D92014280430A30008304C
:100120008700DD2004308700DD2002308700DD20DD
:1001300001308700DD20A30B8F28D920142805303B
:10014000A40008308700DD2004308700DD20023065
:100150008700DD2001308700DD20A40BA128D920F5
:1001600014280630A50008308700DD200430870001
:10017000DD2002308700DD2001308700DD20A50B67
:10018000B328D920142800308700DD2001308700F3
:10019000DD2002308700DD2004308700DD200830BC
:1001A0008700DD200508A600003EA61BC328E2202C
:1001B000142800308700E2200800C9308100811B2C
:1001C000DF28080081014030B4008101811EE6284B
:1001D000B40BE52808000000000000000000080043
:02400E00D420BC
:02401000FF3F70
:00000001FF
