:020000040000FA
:10000000831603178801890183160313850186016E
:1000100087018801890183120313A001A101A201B4
:10002000A3010830A4002308512085000130880076
:100030005C20220851208500023088005C202108C5
:1000400051208500043088005C2020085120850064
:10005000083088005C20A40B1328A30A0A3023026E
:10006000031D1128A20A0A302202031D1028A10A2A
:100070000A302102031D0F28A00A08302002031DA8
:100080000E284228A00306302102031D0F28A103D9
:1000900004302202031D1028A20302302302031D94
:1000A0001328820767347F3407347D346D34663417
:1000B0004F345B3406343F340330A600F930A500DA
:0C00C0000000A50B6028A60B5E280800BD
:02400E00D420BC
:02401000FF3F70
:00000001FF
