:020000040000FA
:10000000831603178801890183160313850186016E
:1000100087018801890183120313A001A101A201B4
:10002000A3013E30A400230843208500013088004E
:100030004E20220843208500023088004E202108EF
:10004000432085008517043088004E202008432077
:100050008500083088004E20A40B1328A30A0A301C
:100060002302031D1128A20A06302202031D1028B4
:10007000A10A0A302102031D0F28A00A063020021F
:10008000031D0E280D2882073F3406345B344F349D
:1000900066346D347D3407347F3467340430A60011
:1000A000FA30A5000000A50B5228A60B5028080026
:02400E00D420BC
:02401000FF3F70
:00000001FF
