:020000040000FA
:1000000097288207003470340834043402340434EE
:10001000083470340034423442347E347E34423406
:100020004234003400347E34423442344234423468
:10003000003400340034403440347E347E34403464
:1000400040340034003400347E34423442347E3450
:100050000034003400347E344834543422340034C4
:1000600000340034003400340034003400347E3472
:100070004834543422340034003400343E3448349C
:1000800048343E340034003400347E34603410345C
:1000900060347E34003400340034423442347E34E0
:1000A0007E3442344234003400347E344834543494
:1000B00022340034003400347E345A345A3442340A
:1000C000423400340034003446344A34523462340A
:1000D000003400343230D0000130860047088700F9
:1000E000FA200230860046088700FA200430860095
:1000F00045088700FA200830860044088700FA2067
:100100001030860043088700FA202030860042081D
:100110008700FA204030860041088700FA208030AE
:10012000860040088700FA20D00B6C280800831650
:100130000317E0308800890183160313FF30850020
:100140008601870107308800890083120313B001FC
:10015000C701C601C501C401C301C201C101C0017B
:10016000D0010130B100013086004608C7004708C1
:100170008700FA20023086004508C600460887003E
:10018000FA20043086004408C50045088700FA209C
:10019000083086004308C40044088700FA20103065
:1001A00086004208C30043088700FA2020308600FA
:1001B0004108C20042088700FA204030860040080B
:1001C000C10041088700FA2080308600F520C00079
:1001D0008700FA206A20B10BB328B00A0130B100C1
:1001E0006E3030060319F828B328300801200800C3
:1001F000B001B3280130A3000730A2000630A100EF
:100200000000A10B0029A20BFE28A30BFC2808006C
:02400E00D420BC
:02401000FF3F70
:00000001FF
