:020000040000FA
:10000000831603178801890183160313FF008500F7
:1000100086018701880189018312031305080F39BE
:10002000A3000F30230203192928073023020319E4
:10003000272803302302031925280130230203193E
:10004000232832302A2816302A2808302A2804305B
:100050002A280130A400851B3A28083086004D204C
:10006000043086004D20023086004D20013086008D
:100070004D200E28013086004D20023086004D2094
:10008000043086004D20083086004D200E28C330F5
:1000900081000B1D49280B1108004720A40B4D2897
:0200A000080056
:02400E00D400DC
:02401000FF3F70
:00000001FF
