:020000040000FA
:1000000083160317203088008901831603132030DC
:100010008500860118308700FF3088000130890094
:100020000030910000309400D73081009F01BF3034
:100030009200831203138601870193018B162430EB
:10004000940015309F00000083160313141C26280B
:100050008312031313088600080893008316031302
:10006000141C3028831203131308950015309F00C9
:1000700000009F149F183A281E089300831603134C
:10008000141C4028831203131308970083160313CC
:100090001E0883120313A500A50CA50C250C9300C4
:1000A00083160313141C5228831203131308803081
:1000B00095009B000C3097009D00121492141215AD
:1000C0002328000083160313141C642822089300BD
:1000D000831203131308A100080000008312031306
:0C00E000D83081000B1D72280B110800A5
:02400E00D420BC
:02401000FF3F70
:00000001FF
